:10000000D3C3000002C4000000C40000FEC300000F
:10001000FCC30000FAC30000F8C30000F6C30000F0
:10002000F4C30000F2C30000F0C30000EEC3000000
:10003000ECC30000EAC30000E8C30000E6C3000010
:10004000E4C30000E2C30000E0C30000DEC3000020
:10005000DCC30000DAC30000D8C300000C941E0902
:10006000D4C30000F4C60000C9C60000CEC300001F
:10007000CCC30000CAC30000C8C30000C6C3000050
:10008000C4C30000C2C30000C0C30000BEC3000060
:10009000BCC30000BAC30000B8C300000C946809D8
:1000A000B4C30000B2C30000B0C30000AEC3000080
:1000B000ACC30000AAC30000A8C30000A6C3000090
:1000C000A4C30000A2C30000A0C300009EC30000A0
:1000D0009CC300009AC3000098C3000096C30000B0
:1000E00094C3000078077B076A076E077407B2079E
:1000F0007F07830789078D07910797079B079F074E
:10010000B207A507A907AD07EF03038002CF0300DD
:10011000C130ED0464031281E803850078CB053912
:100120002C003402F70120EA020000C00123C101C3
:1001300010C5023E28C701863601483701003A0142
:1001400055B1020018B603088227F201002601010A
:10015000E00F0F312B0C0E084EF1370710030E097C
:1001600000E10F000E1403110731C148080F0C31D4
:10017000360F118029800000002100240027002A6A
:10018000002D003000330001010000040107010AC6
:1001900001546F756368205061696E74210000001E
:1001A00020002300260029002C002F00320000012F
:1001B000000003010601090100000A0B02090C0DF1
:1001C0000E0807030401000000000000000000000A
:1001D000000000000000000000000000000000001F
:1001E00000000000121110000000000000000000DC
:1001F00000000000000000000000000000000102FC
:100200001020200808102040102040800201020128
:1002100008040201010204081020408080402010E0
:100220000804020180040201804020100804020139
:1002300008040201010204081020408001020408A1
:100240001020408000002200250028002B002E00F6
:100250003100340002010000050108010B01050511
:100260000505070508080808020202020A0A08082C
:10027000040404040101010101010101030303035A
:1002800003030303040707070C0C0C0C0C0C0C0CE9
:100290000202020206060606060606060B0B0B0BFA
:1002A0000B0B0B0B00000000003E5B4F5B3E3E6BF8
:1002B0004F6B3E1C3E7C3E1C183C7E3C181C577D00
:1002C000571C1C5E7F5E1C00183C1800FFE7C3E74C
:1002D000FF0018241800FFE7DBE7FF30483A060E5E
:1002E0002629792926407F050507407F05253F5AA5
:1002F0003CE73C5A7F3E1C1C08081C1C3E7F142215
:100300007F22145F5F005F5F06097F017F006689BF
:10031000956A606060606094A2FFA29408047E0405
:100320000810207E201008082A1C08081C2A08082B
:100330001E101010100C1E0C1E0C30383E383006EB
:100340000E3E0E06000000000000005F00000007E7
:10035000000700147F147F14242A7F2A1223130815
:10036000646236495620500008070300001C2241F1
:10037000000041221C002A1C7F1C2A08083E080895
:100380000080703000080808080800006060002045
:10039000100804023E5149453E00427F4000724928
:1003A0004949462141494D331814127F10274545CC
:1003B00045393C4A494931412111090736494949E2
:1003C00036464949291E0000140000004034000050
:1003D00000081422411414141414004122140802B9
:1003E000015909063E415D594E7C1211127C7F492C
:1003F0004949363E414141227F4141413E7F494981
:1004000049417F090909013E414151737F080808AC
:100410007F00417F41002040413F017F081422417D
:100420007F404040407F021C027F7F0408107F3ED7
:100430004141413E7F090909063E4151215E7F0944
:10044000192946264949493203017F01033F4040AB
:10045000403F1F2040201F3F4038403F6314081496
:100460006303047804036159494D43007F414141CE
:100470000204081020004141417F040201020440AF
:1004800040404040000307080020545478407F2833
:100490004444383844444428384444287F38545429
:1004A000541800087E090218A4A49C787F0804044C
:1004B0007800447D40002040403D007F10284400EB
:1004C00000417F40007C047804787C08040478387C
:1004D00044444438FC1824241818242418FC7C08AC
:1004E000040408485454542404043F44243C404029
:1004F000207C1C2040201C3C4030403C44281028DC
:10050000444C9090907C4464544C44000836410024
:100510000000770000004136080002010204023C9E
:100520002623263C1EA1A161123A4040207A38546D
:1005300054555921555579412254547842215554E6
:10054000784020545579400C1E5272123955555539
:1005500059395454545939555454580000457C4124
:100560000002457D420001457C407D1211127DF064
:10057000282528F07C545545002054547C547C0A8E
:10058000097F4932494949323A4444443A324A4857
:1005900048303A4141217A3A42402078009DA0A05B
:1005A0007D3D4242423D3D4040403D3C24FF2424AD
:1005B000487E4943662B2FFC2F2BFF0929F620C0CC
:1005C000887E090320545479410000447D4130481D
:1005D000484A32384040227A007A0A0A727D0D1960
:1005E000317D2629292F28262929292630484D40C2
:1005F00020380808080808080808382F10C8ACBABE
:100600002F102834FA00007B000008142A1422223C
:10061000142A14085500550055AA55AA55AAFF5585
:10062000FF55FF000000FF00101010FF001414140D
:10063000FF001010FF00FF1010F010F0141414FC55
:10064000001414F700FF0000FF00FF1414F404FC72
:10065000141417101F10101F101F1414141F001053
:100660001010F0000000001F101010101F101010CC
:1006700010F010000000FF101010101010101010DB
:10068000FF10000000FF140000FF00FF00001F101B
:10069000170000FC04F414141710171414F404F4D5
:1006A0000000FF00F714141414141414F700F714C6
:1006B0001414171410101F101F141414F414101015
:1006C000F010F000001F101F0000001F14000000B9
:1006D000FC140000F010F01010FF10FF141414FFB1
:1006E000141010101F00000000F010FFFFFFFFFFAC
:1006F000F0F0F0F0F0FFFFFF0000000000FFFF0F40
:100700000F0F0F0F3844443844FC4A4A4A347E02E3
:10071000020606027E027E02635549416338444464
:100720003C04407E201E2006027E020299A5E7A519
:10073000991C2A492A1C4C7201724C304A4D4D308A
:100740003048784830BC625A463D3E494949007EAF
:100750000101017E2A2A2A2A2A44445F4444405146
:100760004A444040444A51400000FF0103E080FFFA
:10077000000008086B6B083612362436060F090F86
:1007800006000018180000001010003040FF0101A2
:10079000001F01011E00191D1712003C3C3C3C00CB
:1007A000000000000C1A241611241FBECFEFD1E266
:1007B000DEBFCDBF00E00CBF12E0A0E0B2E0EEE98A
:1007C000FBE300E00BBF02C007900D92AC3BB1070A
:1007D000D9F724E0ACEBB2E001C01D92A837B20714
:1007E000E1F713E0C3EDD3E000E006C02197010973
:1007F000802FFE010E94991BC23DD10780E00807AF
:10080000A9F70E9428160C94BE1DFACB0895CF922A
:10081000DF92EF92FF920F931F93CF93DF936C01C0
:100820007A018B01C0E0D0E0CE15DF0581F0D80160
:100830006D918D01D601ED91FC910190F081E02D3B
:10084000C6011995892B11F02196EECF7E01C701C3
:10085000DF91CF911F910F91FF90EF90DF90CF909C
:100860000895FC01538D448D252F30E0842F90E0B6
:10087000821B930B541710F0CF960895019708959B
:10088000FC01918D828D981761F0828DDF01A80F98
:10089000B11D5D968C91928D9F5F9F73928F90E0BA
:1008A00008958FEF9FEF0895FC01918D828D981729
:1008B00031F0828DE80FF11D858D90E008958FEF66
:1008C0009FEF0895FC01918D228D892F90E0805C2F
:1008D0009F4F821B91098F73992708958DE793E0AD
:1008E000F1DF21E0892B09F420E0822F0895FC013B
:1008F000848DDF01A80FB11DA35ABF4F2C91848DA9
:1009000090E001968F739927848FA689B7892C93DD
:10091000A089B1898C91837080648C93938D848D30
:10092000981306C00288F389E02D80818F7D808333
:100930000895EF92FF920F931F93CF93DF93EC01F3
:1009400081E0888F9B8D8C8D981305C0E889F9898B
:10095000808185FD25C0F62E0B8D10E00F5F1F4FA7
:100960000F731127E02E8C8DE8120BC00FB607FC19
:10097000FACFE889F989808185FFF5CFCE01B7DF0D
:10098000F2CF8B8DFE01E80FF11DE35AFF4FF0828D
:100990009FB7F8940B8FEA89FB89808180620AC037
:1009A0009FB7F894EE89FF896083E889F98980818F
:1009B0008370806480839FBF81E090E0DF91CF915E
:1009C0001F910F91FF90EF900895CF93DF93EC016B
:1009D000888D8823C1F0EA89FB89808185FD05C067
:1009E000A889B9898C9186FD0EC00FB607FCF5CF9A
:1009F000808185FFF2CFA889B9898C9185FFEDCFE1
:100A0000CE0175DFE8CFDF91CF91089580E090E0CF
:100A1000892B19F063DF811125C080E090E0892BDC
:100A200041F080E090E0892B21F00E9400008111CC
:100A30001CC080E090E0892B41F080E090E0892BA1
:100A400021F00E940000811113C080E090E0892B0A
:100A5000A1F080E090E0892B81F00E9400008111DC
:100A60000AC008950E940000D8CF0E940000E1CF84
:100A70000E940000EACF0C940000089585ED809359
:100A8000BC008091BC0084FDFCCF109259030895F6
:100A9000089508950895E091120380911103E817D5
:100AA00030F4F0E0ED5EFC4F808190E008958FEF30
:100AB0009FEF08959091120380911103981750F4BD
:100AC000E92FF0E0ED5EFC4F208130E09F5F9093D6
:100AD000120302C02FEF3FEFC90108958091110367
:100AE00090E020911203821B910908951F93CF93E8
:100AF000DF93EC01162FE881F9810284F385E02D64
:100B00001995111102C060E201C061E2CE010E949C
:100B10009E10E881F9810688F789E02DCE01DF91EA
:100B2000CF911F9119948F929F92AF92BF92CF92C3
:100B3000DF92EF92FF920F931F93CF93DF93EC011D
:100B4000490181E0881A9108860E971EC401A0E031
:100B5000B0E04B01A12CB12C540199248824882A9F
:100B6000992AAA2ABB2A680181E0C81AD108C40EB2
:100B7000D51EC601A0E0B0E06A01E12CF12C76019F
:100B8000DD24CC24C82AD92AEA2AFB2A6AE2CE012B
:100B90000E949E102BA16B2D77278827992727FF6E
:100BA00018C06EBD0DB407FEFDCFC501AA27BB2737
:100BB0008EBD0DB407FEFDCFBB27AB2D9A2D892D21
:100BC0008EBD0DB407FEFDCF8EBC0DB407FEFDCF6C
:100BD00014C0CE010E94F50FB50188279927CE01D8
:100BE0000E94F50F99278B2D7A2D692DCE010E9439
:100BF000F50F682DCE010E94F50F6BE2CE010E9429
:100C00009E102BA16F2D77278827992727FF18C0C3
:100C10006EBD0DB407FEFDCFC701AA27BB278EBD51
:100C20000DB407FEFDCFBB27AF2D9E2D8D2D8EBDA4
:100C30000DB407FEFDCFCEBC0DB407FEFDCF14C032
:100C4000CE010E94F50FB70188279927CE010E9497
:100C5000F50F99278F2D7E2D6D2DCE010E94F50F5A
:100C60006C2DCE010E94F50F6CE2CE01DF91CF9189
:100C70001F910F91FF90EF90DF90CF90BF90AF90BA
:100C80009F908F900C949E101F93CF93DF93EC0155
:100C900063706D8B6230C1F0633001F1613051F0EF
:100CA00080EF90E09987888780E491E09B878A872E
:100CB00018E41DC080E491E09987888780EF90E078
:100CC0009B878A8718E213C080EF90E09987888716
:100CD00080E491E09B878A8718E809C080E491E06E
:100CE0009987888780EF90E09B878A8718EEE88154
:100CF000F9810284F385E02DCE01199566E3CE01DA
:100D00000E949E10612FCE010E94F50FE881F981AB
:100D10000688F789E02DCE01DF91CF911F911994BC
:100D2000EF92FF920F931F93CF93DF93EC017B0120
:100D30008A0188819981009729F02A813B812417B3
:100D40003507F8F4B8016F5F7F4F0E94CE1C009703
:100D500059F0998388831B830A832C813D81232B3F
:100D600081F4FC0110820DC088819981009711F0F7
:100D70000E94451C198218821D821C821B821A82C5
:100D800007C01D830C83B701888199810E94B71D1C
:100D9000CE01DF91CF911F910F91FF90EF900895B9
:100DA000FC01808191810C94451CFC011182108210
:100DB00013821282158214826115710549F0FB01BC
:100DC00001900020E9F73197AF01461B570BA8CFE0
:100DD00008956115710579F0FB0101900020E9F794
:100DE0003197AF01461B570BDC01ED91FC9102805E
:100DF000F381E02D199480E090E008951F920F9206
:100E00000FB60F9211240BB60F922F933F934F936F
:100E10005F936F937F938F939F93AF93BF93EF9362
:100E2000FF938DE793E063DDFF91EF91BF91AF9169
:100E30009F918F917F916F915F914F913F912F91F2
:100E40000F900BBE0F900FBE0F901F9018951F9222
:100E50000F920FB60F9211240BB60F922F938F9310
:100E60009F93EF93FF93E0918D03F0918E03808128
:100E7000E0919303F091940382FD12C090818091E0
:100E800096038F5F8F7320919703821751F0E09143
:100E90009603F0E0E358FC4F958F8093960301C0D2
:100EA0008081FF91EF919F918F912F910F900BBEB9
:100EB0000F900FBE0F901F90189590E0FC01319796
:100EC000E231F10508F04EC08827EE58FF4F8F4FF2
:100ED0000C94991B809180008F7703C080918000D3
:100EE0008F7D80938000089580918000877FF9CF67
:100EF00084B58F7702C084B58F7D84BD08958091BD
:100F0000B0008F7703C08091B0008F7D8093B000D8
:100F10000895809190008F7707C0809190008F7D19
:100F200003C080919000877F809390000895809106
:100F3000A0008F7707C08091A0008F7D03C08091B3
:100F4000A000877F8093A0000895809120018F7773
:100F500007C0809120018F7D03C080912001877F91
:100F60008093200108951F93CF93DF93282F30E0C3
:100F7000F901E854FE4F8491F901E250FE4FD491FB
:100F8000F901E25AFD4FC491CC23B9F0162F81111B
:100F900094DFEC2FF0E0EE0FFF1FEC5BFD4FA5910F
:100FA000B4919FB7F894111104C08C91D095D823B7
:100FB00002C0EC91DE2BDC939FBFDF91CF911F919C
:100FC0000895CF93DF9390E0FC01E250FE4F24910F
:100FD000FC01E25AFD4F8491882361F190E0880F73
:100FE000991FFC01E958FE4FC591D491FC01EC5BBF
:100FF000FD4FA591B491611109C09FB7F894888104
:10100000209582238883EC912E230BC0623061F4FB
:101010009FB7F8948881322F309583238883EC9191
:101020002E2B2C939FBF06C08FB7F894E8812E2BF0
:1010300028838FBFDF91CF9108953FB7F8948091B7
:10104000040390910503A0910603B091070326B510
:10105000A89B05C02F3F19F00196A11DB11D3FBFF0
:10106000BA2FA92F982F8827820F911DA11DB11D7E
:10107000BC01CD0142E0660F771F881F991F4A957A
:10108000D1F708958F929F92AF92BF92CF92DF9245
:10109000EF92FF926B017C01D0DF4B015C01C11428
:1010A000D104E104F104E9F0C8DFDC01CB018819C7
:1010B0009909AA09BB09883E9340A105B10578F3B7
:1010C00021E0C21AD108E108F10888EE880E83E019
:1010D000981EA11CB11CC114D104E104F10421F734
:1010E000DECFFF90EF90DF90CF90BF90AF909F90BA
:1010F0008F900895BF92CF92DF92EF92FF920F935D
:101100001F93CF93DF93EC014115510561057105E4
:1011100021F440E052E16AE770E04C8F5D8F6E8F02
:101120007F8F88A187FD05C061E04BDF61E088A16A
:101130001ADF61E089A145DF60E089A114DF8BA19E
:1011400087FD13C061E08CA13CDF60E08CA10BDF68
:1011500061E08BA136DF61E08BA105DF8DA187FD0A
:1011600002C060E02EDF8BA187FD0AD78AA187FD30
:101170001AC061E026DF61E08AA1F5DE64E670E076
:1011800080E090E07FDF60E08AA1EDDE64E670E061
:1011900080E090E077DF61E08AA1E5DE68EC70E056
:1011A00080E090E06FDFE881F9810284F385E02D33
:1011B000CE01199508E011E078018FEFE81AF80ADE
:1011C000F8016491662309F1CE01B8D70E5F1F4F75
:1011D000F701E490FE2DFF77BF2E6801FF2EFA94F1
:1011E0008FEFF81641F0F6016491CE01FED6FFEFC5
:1011F000CF1ADF0AF4CF0B0D111DE7FEDDCF68E734
:1012000070E080E090E03EDFD7CFE881F98106888A
:10121000F789E02DCE01199580EF90E099878887B6
:1012200080E491E09B878A87DF91CF911F910F9196
:10123000FF90EF90DF90CF90BF9008951F920F9294
:101240000FB60F9211242F933F938F939F93AF93D9
:10125000BF938091000390910103A0910203B0918C
:1012600003033091FF0223E0230F2D3720F4019672
:10127000A11DB11D05C026E8230F0296A11DB11DB9
:101280002093FF028093000390930103A093020335
:10129000B09303038091040390910503A09106038A
:1012A000B09107030196A11DB11D80930403909393
:1012B0000503A0930603B0930703BF91AF919F91DD
:1012C0008F913F912F910F900FBE0F901F90189507
:1012D0001F920F920FB60F9211240BB60F922F93FD
:1012E0003F934F935F936F937F938F939F93AF93AE
:1012F000BF93EF93FF938091B900887F803609F404
:101300009CC068F5883209F45BC090F4803109F420
:1013100054C038F4882309F4F6C0883009F44DC06D
:10132000F5C0883109F44CC0803209F45DC0EEC0CC
:10133000803409F468C048F4803309F455C0883318
:1013400009F0E4C080935703D8C0803509F44FC03A
:10135000883509F45DC0883409F0D8C0D6C0883912
:1013600009F4C7C0A8F4883709F467C038F4883690
:1013700009F463C0803709F460C0C8C0883809F434
:10138000B8C0803909F45FC0803809F0BFC05BC0C5
:10139000803B09F486C038F4803A09F466C0883A84
:1013A00009F47FC0B3C0803C09F4A7C0883C09F4AD
:1013B000A4C0883B09F48AC0A9C08091340310C03E
:1013C0009091560380915503981770F5E09156035C
:1013D00081E08E0F80935603F0E0EB5CFC4F808140
:1013E0008093BB0085EC86C0809357038EC0E0914C
:1013F000560381E08E0F809356038091BB00F0E08E
:10140000EB5CFC4F808390915603809155036EC036
:10141000E091560381E08E0F809356038091BB00CC
:10142000F0E0EB5CFC4F80838091580381116DC02C
:1014300081E08093330384EA61C083E080935903A1
:101440001092FE02CFCF8091FE02803208F051C090
:10145000E091FE0281E08E0F8093FE028091BB003E
:10146000F0E0E252FD4F8083BDCF85EC8093BC005D
:10147000109259038091FE02803230F4E091FE0216
:10148000F0E0E252FD4F10826091FE0270E0E091C8
:101490000903F0910A038EED92E019951092FE0275
:1014A00035C084E0809359031092DD021092DC0273
:1014B000E0910B03F0910C0319958091DC028111EE
:1014C00005C081E08093DC021092BC02E091DD0255
:1014D00081E08E0F8093DD02F0E0E454FD4F8081C7
:1014E0008093BB009091DD028091DC02981708F494
:1014F00079CF85E88093BC0009C085EC8093BC005F
:101500001092590303C010925703B8DAFF91EF917C
:10151000BF91AF919F918F917F916F915F914F910B
:101520003F912F910F900BBE0F900FBE0F901F9009
:1015300018954091DC02262F30E0240F311D213216
:101540003105DCF4209159032430C9F4FC0180E01A
:1015500090E0861758F43091DC022191DC01A4540C
:10156000BD4FA30FB11D2C930196F3CF8091DC02E8
:10157000680F6093DC0280E0089581E0089582E0C6
:1015800008958F929F92AF92BF92CF92DF92EF9287
:10159000FF920F931F93CF93DF93EC016B015A01DE
:1015A0004901E881F9810284F385E02D1995E881EC
:1015B000F9810684F785E02D9401A501B601CE01DD
:1015C0001995E881F9810688F789E02DCE01DF9130
:1015D000CF911F910F91FF90EF90DF90CF90BF9030
:1015E000AF909F908F901994AF92BF92CF92DF925D
:1015F000EF92FF920F931F93CF93DF93EC017B0148
:101600006A015901E881F9810284F385E02D199579
:10161000E881F9810288F389E02D9501A601B701DF
:10162000CE011995E881F9810688F789E02DCE0170
:10163000DF91CF911F910F91FF90EF90DF90CF90AE
:10164000BF90AF901994AF92BF92CF92DF92EF927A
:10165000FF920F931F93CF93DF93EC017B016A01FD
:101660005901E881F9810284F385E02D1995E8811B
:10167000F9810088F189E02D9501A601B701CE011D
:101680001995E881F9810688F789E02DCE01DF916F
:10169000CF911F910F91FF90EF90DF90CF90BF906F
:1016A000AF901994EF92FF920F931F93DC01ED918D
:1016B000FC910684F785E02D780101E010E0199592
:1016C0001F910F91FF90EF900895EF92FF920F936B
:1016D0001F93DC01ED91FC910684F785E02D7801E4
:1016E000890121E030E019951F910F91FF90EF9053
:1016F00008950895FC016370658B8481958126812E
:101700003781613039F0633029F0918780873387E2
:1017100022870895318720879387828708956F9263
:101720007F928F929F92AF92BF92CF92DF92EF9271
:10173000FF920F931F93CF93DF93EC014B015A015C
:1017400069013801E881F9810284F385E02D19955A
:10175000E881F9810288F389E02D87019601A501CE
:10176000B401CE011995A501460D571D41505109EF
:10177000E881F9810288F389E02D9601B401CE0158
:101780001995E881F9810088F189E02D9301A5017F
:10179000B401CE011995C80CD91CB601615071096C
:1017A000E881F9810088F189E02D9301A501CE013E
:1017B0001995E881F9810688F789E02DCE01DF913E
:1017C000CF911F910F91FF90EF90DF90CF90BF903E
:1017D000AF909F908F907F906F9019948F929F926F
:1017E000AF92BF92CF92DF92EF92FF920F931F932F
:1017F000CF93DF934C016B015A01E901DC01ED91BC
:10180000FC916217730781F40417150724F48B2DDC
:101810005801042F182F0A191B0998012F5F3F4FF9
:10182000048CF58DE02D12C04017510709F52617DD
:10183000370724F48D2D6901C62FD82F9E012C194E
:101840003D092F5F3F4F068CF78DE02D8701A501E5
:10185000B601C4011995DF91CF911F910F91FF90AF
:10186000EF90DF90CF90BF90AF909F908F900895B2
:101870000284F385E02D1995D401ED91FC91048843
:10188000F589E02D9E01A501B601C4011995D40189
:10189000ED91FC910688F789E02DC401DF91CF918D
:1018A0001F910F91FF90EF90DF90CF90BF90AF907E
:1018B0009F908F901994EF92FF920F931F93DC01EA
:1018C0001A960D911C911B9718962D913C91199782
:1018D000ED91FC9100A0F1A1E02D7B0140E050E0F2
:1018E00060E070E019951F910F91FF90EF900895BF
:1018F0004F925F926F927F928F929F92AF92BF9220
:10190000CF92DF92EF92FF920F931F93CF93DF93CB
:101910006C012B015A0139014801DC01ED91FC9168
:101920000284F385E02D1995E201640C751CD60143
:10193000ED91FC91C615D7055CF40088F189E02D86
:1019400087019401A501BE01C60119952196EFCF2B
:101950000688F789E02DC601DF91CF911F910F9185
:10196000FF90EF90DF90CF90BF90AF909F908F90BF
:101970007F906F905F904F9019948F929F92AF924B
:10198000BF92CF92DF92EF92FF920F931F93CF936C
:10199000DF93EC015B014A016901E881F98102846E
:1019A000F385E02D199595012C0D3D1D2150310930
:1019B000E881F9810488F589E02D78018401A4018A
:1019C000B501CE011995E881F9810688F789E02DE6
:1019D000CE01DF91CF911F910F91FF90EF90DF909B
:1019E000CF90BF90AF909F908F9019948F929F92BD
:1019F000AF92BF92CF92DF92EF92FF920F931F931D
:101A0000CF93DF93EC015B014A0169017801E88122
:101A1000F9810284F385E02D1995C80CD91C860143
:101A200001501109E881F9810488F589E02D9501BB
:101A3000A401B501CE011995E881F9810688F789DD
:101A4000E02DCE01DF91CF911F910F91FF90EF908C
:101A5000DF90CF90BF90AF909F908F901994EF92AE
:101A6000FF920F931F93DC01ED91FC9100A0F1A177
:101A7000E02D19951F910F91FF90EF9008950F930E
:101A80001F93DC01ED91FC91068CF78DE02D1995EB
:101A90001F910F9108950F931F93DC01ED91FC911D
:101AA000048CF58DE02D19951F910F910895DC019F
:101AB000ED91FC910084F185E02D19942F923F92D5
:101AC0004F925F926F927F928F929F92AF92BF924E
:101AD000CF92DF92EF92FF920F931F93CF93DF93FA
:101AE00000D000D0CDB7DEB72C017E836D836A01B4
:101AF0005901C801FC82EB824801841A950A97FEBD
:101B000003C091948194910835012D813E81621A20
:101B1000730A77FE03C071946194710868147904A4
:101B20005CF43A2D2B2D5C01832F922F3D812E8169
:101B3000DE82CD82C32ED22EAD81BE81AA16BB0617
:101B40005CF43C2D2D2D6C01832F922F3D812E8135
:101B5000BE82AD82A32EB22E85012D813E81021B55
:101B6000130B1C012C183D0837FE03C0319421943F
:101B70003108780117FF03C03FEFE31AF30AF59429
:101B8000E794C816D9062CF08FEF9FEF9A838983CC
:101B900004C0A1E0B0E0BA83A9832D813E81A216E2
:101BA000B30624F1D201ED91FC910484F585E02D7A
:101BB0002B813C816814790424F44D815E81B60147
:101BC00003C0A6016D817E81C2011995E218F30858
:101BD000F7FE06C029813A81C20ED31EE00EF11E27
:101BE0008D819E8101969E838D83D7CF26960FB6D9
:101BF000F894DEBF0FBECDBFDF91CF911F910F9143
:101C0000FF90EF90DF90CF90BF90AF909F908F901C
:101C10007F906F905F904F903F902F90089580E05D
:101C200090E00895CF92DF92EF92FF920F931F936F
:101C3000CF93DF937C01CB018A0120915A032223A9
:101C400089F0EB016B01C40ED51ECC15DD0561F0EA
:101C50006991D701ED91FC910190F081E02DC701D0
:101C60001995F3CF642F65DCC801DF91CF911F91E7
:101C70000F91FF90EF90DF90CF900895CF93DF9377
:101C80001F92CDB7DEB7698320915A032223D1F08A
:101C900020917C03203240F021E030E0FC013383CE
:101CA000228380E090E014C080915B03E82FF0E095
:101CB000E45AFC4F998190838F5F80935B038093FC
:101CC0007C0304C061E0CE01019633DC81E090E04A
:101CD0000F90DF91CF910895AF92BF92CF92DF9294
:101CE000EF92FF920F931F93CF93DF93EC0177FD59
:101CF00037C0888599856817790794F557FD30C0F6
:101D00008A859B85481759075CF569017A015B0153
:101D1000E881F9810284F385E02DCE011995E881EF
:101D2000F98102A4F3A5E02D01E010E021E030E00C
:101D3000A701B501CE011995B601CE0166D7E8819C
:101D4000F9810688F789E02DCE01DF91CF911F91AF
:101D50000F91FF90EF90DF90CF90BF90AF901994CC
:101D6000DF91CF911F910F91FF90EF90DF90CF9077
:101D7000BF90AF900895EF92FF920F931F93CF9370
:101D8000DF93EC0177FD21C0888599856817790775
:101D9000E4F457FD1AC08A859B8548175907ACF4AF
:101DA0007901E881F98102A4F3A5E02D01E010E0BA
:101DB00021E030E0CE011995B701CE01DF91CF913E
:101DC0001F910F91FF90EF9020C7DF91CF911F914E
:101DD0000F91FF90EF900895AF92BF92CF92EF9244
:101DE000FF920F931F93CF93DF93EC01262F888DE3
:101DF000998D009709F03FC06A3059F41D861C8602
:101E00002C898E859F8538E0239F800D911D11249C
:101E100040C06D3009F4A8C08E898823C1F03C8988
:101E20008C859D8546E0349F800D911D1124488549
:101E30005985481759075CF41D861C868E859F8539
:101E400048E0349F800D911D11249F878E87EA887A
:101E5000FB88088919894E855F856C857D85CC88CE
:101E6000CE01B9D42C898C859D8536E0239F800DC9
:101E7000911D112442C06A3079F41D861C862C897C
:101E8000FC013696E4918E859F852E9F800D911DD5
:101E900011249F878E8768C06D3009F465C0FC01EE
:101EA00034963491631708F45FC03196E491E617D5
:101EB00008F45AC0FC01329665917491422F50E0AB
:101EC000431B510937E0349F5001359FB00C11245A
:101ED000A60EB71EF501329634913196E491332364
:101EE00011F0E1110DC0F5013496E4912C898C8537
:101EF0009D85E29F800D911D11249D878C8734C0A4
:101F0000F501359644915E89552311F16C89E32FD3
:101F1000F0E0E40FF11D47FDFA956E9FD0016F9F31
:101F2000B00D11244C855D854A0F5B1FE885F9854E
:101F3000E417F5076CF41D861C86FC013696E491C7
:101F40008E859F856E9F800D911D11249F878E87A2
:101F5000EA88FB88088919894E855F856C857D85AF
:101F6000CC88CE0138D4BFCF81E090E0DF91CF9113
:101F70001F910F91FF90EF90CF90BF90AF90089579
:101F8000CF93CFB7F89480910803811126C0E3E97D
:101F9000F2E08491E3E3F2E09491E82FF0E0EE0FB9
:101FA000FF1FE958FE4FA591B491EC91E92321F46C
:101FB00061E085E30E94B30761E085E302D88CB558
:101FC00080618CBD8CB580648CBD61E084E30E942F
:101FD000E10761E083E30E94E107809108038F5FDE
:101FE00080930803CFBFCF910895FC0183A187FFA1
:101FF00005C06EBD0DB407FEFDCF089588E090E0EA
:1020000020E8A6A1B7A1362F322321F040A93C91A8
:10201000342B04C030A94C91309534233C9332A921
:10202000A2A5B3A54C91309534233C9342A9A2A517
:10203000B3A53C91342B3C932695019711F7089555
:102040008F929F92AF92BF92CF92DF92EF92FF92C8
:102050000F931F93CF93DF93EC0169015801470160
:1020600028853985621773070CF05BC08A859B85CC
:10207000481759070CF055C07B01EC0CFD1CD7012B
:1020800011978A010A0D1B1DF8013197B7FD49C050
:10209000F7FD47C077FF03C0670160E070E057FFBE
:1020A00003C0580140E050E0A217B3071CF06901DB
:1020B000C61AD70AE817F9071CF05C01A41AB50A7A
:1020C000E881F98102A4F3A5E02D85019601CE01F6
:1020D00019959601D5010E94A11B61157105810515
:1020E0009105F9F02BA127FF0EC0615071098109FC
:1020F0009109B8F09EBC0DB407FEFDCF8EBC0DB4A7
:1021000007FEFDCFF2CF6B017C01692DCE016DDFA3
:10211000682DCE016ADF81E0C81AD108E108F10814
:10212000A1F7DF91CF911F910F91FF90EF90DF907A
:10213000CF90BF90AF909F908F900895CF93DF93F3
:10214000EC018CA9ECA5FDA5908180958923808365
:10215000CE014BDF9CA9ECA5FDA58081892B808356
:10216000DF91CF9108951F93CF93DF93EC01162F4A
:10217000E881F9810284F385E02D1995112311F08E
:102180006DA901C06EA9CE01D9DFE881F981068869
:10219000F789E02DCE01DF91CF911F911994089519
:1021A000FC0193A906A4F7A5E02D8081892B8083EB
:1021B00008958CBD9DBD08950F931F93CF93DF931A
:1021C000EC018BA187FF1DC00C8D1D8D2E8D3F8DC9
:1021D00040E052E16AE770E090E004171507260737
:1021E000370740F476956795579547959F5F9630EA
:1021F000A1F797E081E09827892F806A86959170F2
:10220000D8DF8BA9EEA5FFA59081809589238083D7
:10221000DF91CF911F910F910895282F30917C036A
:10222000313208F04AC0809159038111FCCF90915E
:10223000720442E040935903209358032FEF2093F8
:1022400057031092560330935503ECE5F3E0A5E3F2
:10225000B3E020E0321721F041914D932F5FFACF88
:102260001092340320913403990F922B90933403EE
:1022700090913303913061F41092330390913403C1
:102280009093BB009091BC0093FDF8CF95EC01C0FA
:1022900095EE9093BC00909159039230E1F39091A8
:1022A00057039F3F79F080915703803241F080912E
:1022B0005703803331F084E005C081E003C082E041
:1022C00001C083E010925B0310927C0310925A03CA
:1022D0000895EF92FF920F931F93CF93DF93F090A7
:1022E0006E049FEFF91207C08EBD00000DB407FE0B
:1022F000FDCF8EB51CC0E0906C0407E010E0C82F45
:10230000D0E0BE01002E02C0759567950A94E2F7F1
:1023100061708E2D0E94B30761E08F2D0E94B3077C
:1023200060E08F2D0E94B3070150110950F7DF9133
:10233000CF911F910F91FF90EF900895EF92FF9230
:102340000F931F93CF93DF93CDB7DEB762970FB68E
:10235000F894DEBF0FBECDBF8C01CB01F801118216
:10236000108213821282158214824AE09E012F5F2E
:102370003F4F7901B9010E94091BF701019000202C
:10238000E9F73197AF014E195F09B701C8010E9403
:10239000900662960FB6F894DEBF0FBECDBFDF91F8
:1023A000CF911F910F91FF90EF9008954F925F9200
:1023B0006F927F92AF92BF92CF92DF92EF92FF9295
:1023C0000F93CF93DF935C016B01EA0179010E94C7
:1023D0001D082B013C01B0923D04A0923C04D09218
:1023E0003F04C0923E04F0924304E0924204F09213
:1023F0004104E0924004011101C001E00093440453
:102400004C815D816881798180E394E00E940704BA
:102410006AE572E080E394E00E94E9060E941D08EC
:102420006419750986099709DF91CF910F91FF9083
:10243000EF90DF90CF90BF90AF907F906F905F90C4
:102440004F900895CF93DF93BC018DE793E00E94F6
:10245000E906EC016AE572E08DE793E00E94E90687
:102460008C0F9D1FDF91CF910895CF93DF93D82FCD
:10247000C62F80916B048F3FB9F480916F0491E077
:1024800090935A038093720410925B0310927C0322
:102490006D2F8CE194E0F2DB6C2F8CE194E0EEDBAD
:1024A00081E0DF91CF91B9CE80916E048F3F29F406
:1024B00080911A0490911B047CDE60E080916B0493
:1024C0000E94B3078D2F05DF8C2F03DF61E0809121
:1024D0006B040E94B30780916E048F3F19F4DF9163
:1024E000CF915DCEDF91CF9108958F929F92AF9261
:1024F000BF92CF92DF92EF92FF920F931F93CF93F1
:10250000DF93C82F80916B048F3F09F069C08091E1
:102510006F04D1E0D0935A038093720410925B034E
:1025200010927C036C2F8CE194E0A8DB81E075DED7
:1025300080916F04D0935A038093720410925B03CE
:1025400010927C03909159039111FCCF91E09093EC
:102550005903909358032FEF20935703109256037B
:10256000109255039093340390913403880F892B74
:102570008093340380913303813061F410923303EC
:10258000809134038093BB008091BC0083FDF8CF21
:1025900085EC01C085EE8093BC00809159038130A9
:1025A000E1F380915603811103C09091560301C05D
:1025B00091E0A5E3B3E0E3E1F3E080E0891721F0E7
:1025C0002D9121938F5FFACF109212038093110304
:1025D0008CE194E00E945A05B82E81E01EDE66C0B0
:1025E00080916E048F3F29F480911A0490911B040E
:1025F000E0DD60E080916B040E94B3078C2F80685F
:1026000068DE80E066DEA0906E048FEFA81207C03F
:102610001EBC00000DB407FEFDCFBEB43DC0C0918E
:102620006D0407E010E0B12CD0E0FE01E854FE4F4D
:102630007F01CE0182509E4F6C01C25ADD4F61E096
:102640008A2D0E94B307F7018491F6019490FE0150
:102650008490882091F081110E945D07E82DF0E0C0
:10266000EE0FFF1FE256FE4FA591B4918C91982278
:1026700031E009F430E0832F02C080E090E0002ECA
:1026800001C0880F0A94EAF7B82A60E08A2D0E94F8
:10269000B3070150110998F661E080916B040E9424
:1026A000B30780916E048F3F09F479DD8B2DDF91A4
:1026B000CF911F910F91FF90EF90DF90CF90BF903F
:1026C000AF909F908F900895CF93DF9380E00DDFC0
:1026D000C82FD0E0DC2FCC2781E007DF9E01282B1C
:1026E000C901DF91CF9108958F929F92AF92BF92CF
:1026F000CF92DF92EF92FF920F931F93CF93DF93CE
:10270000CDB7DEB7A1970FB6F894DEBF0FBECDBF31
:102710006C01990FEE08FF08F7FE2CC06DE28DE703
:1027200093E00E9499048C0122273327A9012C19D8
:102730003D094E095F0919A2CE0181967C019AE0FC
:10274000892E912CA12CB12CCA01B901A5019401AB
:10275000BFD7605DF70162937F0121153105410507
:10276000510591F7BF018DE793E00E94E906800FC4
:10277000911F1EC0A701960119A28E010F5D1F4F68
:102780008AE0C82ED12CE12CF12CCA01B901A70195
:1027900096019ED7605DF80162938F012115310586
:1027A0004105510591F7BF018DE793E00E94E906CD
:1027B000A1960FB6F894DEBF0FBECDBFDF91CF91CB
:1027C0001F910F91FF90EF90DF90CF90BF90AF904F
:1027D0009F908F9008952F923F924F925F926F92A9
:1027E0007F928F929F92AF92BF92CF92DF92EF92A1
:1027F000FF920F931F93CF93DF93CDB7DEB76B9705
:102800000FB6F894DEBF0FBECDBF9B8F8A8F5B01E2
:102810001A01D22E1F830E833701C982DC0158961C
:102820002D913C9159972115310509F0E6C0189674
:102830008D919C911997681779070CF0CDC11A9664
:102840008D919C911B97481759070CF0C5C18C2C92
:10285000912CFB0126E0C29EE00DF11D1124FB87A7
:10286000EA871E161F060CF0B7C1A40183E0440FCF
:10287000551F8A95E1F75D874C87CA01820D931D2C
:10288000181619060CF0A8C157968C91811104C036
:102890005FEA5D1508F4D394AA8DBB8DED91FC9190
:1028A00011970284F385E02DCD011995B5E0DB9EEB
:1028B000C0011124F5013596FF87EE87BB82AA82FD
:1028C00025019C012A193B09398B288BA101485FFE
:1028D0005F4F5B8B4A8BE889F989E40DF51DEC5558
:1028E000FD4F5491588761013D822C82888580FF7D
:1028F00013C0AA8DBB8DED91FC91B981B13031F43B
:102900000484F585E02D2E813F8116C00684F7856D
:10291000E02DEE80FF801AC0EE81FF81E615F705FD
:10292000F1F0AA8DBB8DED91FC91B981B13051F4DC
:102930000484F585E02D9301A601B2018A8D9B8D5B
:1029400019950DC00684F785E02D7301840194016B
:102950004C815D816A817B818A8D9B8D1995E8858B
:10296000E695E887FFEFCF1ADF0A2C813D81280D1D
:10297000391D3D832C834A895B89C416D50609F02D
:10298000B5CF5FEF451A550A8A819B81880D991D45
:102990009B838A83AE85BF854A165B0609F09BCF71
:1029A000EE81FF81E615F70509F4F4C0EA8DFB8D91
:1029B000A081B181F981F13079F4B5016B5F7F4F6E
:1029C0005096ED91FC915197830128E030E0A101F0
:1029D0008A8D9B8D1995DEC06A857B85681979097A
:1029E0001E96ED91FC911F9773010C851D85940136
:1029F000A1018A8D9B8D1995CDC0F9013496E49182
:102A0000DE1AF901329685919491B7E0DB9E800D34
:102A1000911D1124F901259134913B8B2A8BFC01E6
:102A2000259134912901FC013296C490319634915C
:102A30003E87329614913196D4904981423058F0B5
:102A4000612E012E000C77088D2D0D2C000C990B9A
:102A50009987888704C019861886612C712CAA8DE5
:102A6000BB8DED91FC9111970284F385E02DCD0192
:102A70001995B9818B2E912C689CC001699C900D91
:102A8000789C900D1124FC01EA0DFB1DFD87EC875D
:102A90001A82712C612CE12F110FFF0B95012E0F63
:102AA0003F1F3B872A87AC0CB11CA5014E0F5F1F4F
:102AB0005F8B4E8BC1018D0D911DD7FC9A95998F1F
:102AC000888F9E85691608F065C0862D90E0488540
:102AD0005985480F591F489D9001499D300D589DBB
:102AE000300D1124D101A20FB31FB98BA88BEC8537
:102AF000FD85FD83EC83AA84BB84DA80FA85DF1A26
:102B0000288D398D280F391F3D8B2C8B8D2D8A0DEB
:102B10004E895F89A416B506C1F1877041F4C201E0
:102B20000196EA89FB89E40DF51D74902C0177FE6E
:102B300021C0AA8DBB8DED91FC91B981B13061F4BA
:102B40000484F585E02D2E813F814C895D89B50196
:102B50008A8D9B8D19950EC00684F785E02DEE8039
:102B6000FF8084019401488959896C817D818A8D17
:102B70009B8D1995770CEFEFAE1ABE0A2C813D8123
:102B8000280D391D3D832C83C1CF3A813C0D3A83FA
:102B9000639497CFAA8DBB8DED91FC911197068818
:102BA000F789E02DCD016B960FB6F894DEBF0FBE0E
:102BB000CDBFDF91CF911F910F91FF90EF90DF90EC
:102BC000CF90BF90AF909F908F907F906F905F90CD
:102BD0004F903F902F9019946B960FB6F894DEBFEC
:102BE0000FBECDBFDF91CF911F910F91FF90EF905E
:102BF000DF90CF90BF90AF909F908F907F906F901D
:102C00005F904F903F902F9008951F93CF93DF9345
:102C1000262FFC0133A137FF09C07EBD0DB407FE8E
:102C2000FDCF2EBD0DB407FEFDCF0AC0672F122FBA
:102C3000EC01DBD9612FCE01DF91CF911F91D5C976
:102C4000DF91CF911F91089588E294E00C94D00613
:102C5000CF93DF9300D000D0CDB7DEB7789484B5A2
:102C6000826084BD84B5816084BD85B5826085BD88
:102C700085B5816085BD80916E00816080936E0016
:102C80001092810080918100826080938100809108
:102C900081008160809381008091800081608093B9
:102CA00080008091B10084608093B1008091B00079
:102CB00081608093B0008091910082608093910048
:102CC000809191008160809391008091900081605B
:102CD000809390008091A10082608093A1008091F8
:102CE000A10081608093A1008091A0008160809309
:102CF000A0008091210182608093210180912101B7
:102D00008160809321018091200181608093200166
:102D100080917A00846080937A0080917A0082604A
:102D200080937A0080917A00816080937A0080910C
:102D30007A00806880937A001092C100E0918D0340
:102D4000F0918E0382E08083E0918903F0918A0301
:102D50001082E0918B03F0918C038FEC80831092B2
:102D60009503E0919103F091920386E08083E091D6
:102D70008F03F0919003808180618083E0918F03C5
:102D8000F0919003808188608083E0918F03F091BF
:102D90009003808180688083E0918F03F09190039D
:102DA00080818F7D808301E911E0F80164916111D8
:102DB00012C06AE572E08DE793E00E94E90640E008
:102DC00050E0BA0180E394E00E947A0890916B048D
:102DD0009F3F51F433C08DE793E00E9499040F5F49
:102DE0001F4F892B11F7E5CF80916E0461E08F3F73
:102DF00099F4892F0E94E10761E080916B040E94A1
:102E0000B307BED881E580931A0410921B04109278
:102E100071041092700448C00E94E10761E0809143
:102E20006B040E94E10761E080916C040E94E1075D
:102E300060E080916D040E94E10736C01092120399
:102E40001092110310925B0310927C0310925903AD
:102E500081E0809358031092330361E084E10E9483
:102E6000B30761E085E10E94B3078091B9008E7FCE
:102E70008093B9008091B9008D7F8093B90088E478
:102E80008093B80085E48093BC0088E495E090933B
:102E90000C0380930B0389E495E090930A038093DD
:102EA000090381E480936F040FDC8131984059F469
:102EB00062E083E0DADA6AE070E080E090E00E94AD
:102EC000420810E01BC080916B048F3F09F4A0C240
:102ED00080916E048F3F09F09BC285E580931A04B0
:102EE00010921B0484E090E090937104809370042E
:102EF000EBDB8131984009F08BC2DACF812FF5DA14
:102F00001F5F1134D9F760E084E0AFDA61E080E45C
:102F1000ACDA61E08AE0A9DA60E680E2A6DA62E093
:102F200081E2A3DA64EA81E4A0DA66E086E59DDA6C
:102F300061E08AE49ADA61E08BE497DA60E08BE49E
:102F400094DA61E088E591DA6FEF8BE08EDA65E084
:102F500089E08BDA8DE592E075DA60E070E080E37D
:102F600094E00E945B0C61E772E0CE0101960E9442
:102F7000D50600E010E02FEF3FEFAE014F5F5F4F4F
:102F800062E170E082E390E011DACE0101960E94E6
:102F9000D00666E772E0CE0101960E94D5062FEFBB
:102FA0003FEFAE014F5F5F4F62E170E08AEA90E071
:102FB000FDD9CE0101960E94D00682E090E0909368
:102FC000100380930F03EE24EA94FE2C08E210E035
:102FD00028E730E040E050E068E770E080E394E00C
:102FE0000E948F0B6AE772E0CE0101960E94D5061F
:102FF00002E010E020EE37E0AE014F5F5F4F66E980
:1030000070E084E690E0D2D9CE0101960E94D0060D
:1030100001E110E025EB30E04DE051E06DE170E0C2
:1030200080E394E00E948F0B6E0185E0C80ED11CF6
:1030300022242394312C80E458DA87FFE6C18E01E4
:103040000F5F1F4F87ED51DAF80181938F01CE1684
:10305000DF06C1F7E980F0E1EF9EC00111240A818B
:10306000E02EF12C44E0F594E7944A95E1F7E82A44
:10307000F92A0F7010E0102F00278B81082B8BE4AA
:1030800034DA85FF03C06FEF8BE0EFD9A0913804ED
:10309000B0913904A70160E070E09A01AB012659B4
:1030A0003109410951090ED322E43EE040E050E0ED
:1030B000E3D249015A01A0913A04B0913B04A8011E
:1030C00060E070E09A01AB012258310941095109D1
:1030D000F9D22EE13FE040E050E0CED229013A01A2
:1030E0006EE772E08DE793E00E94E906C401FCDA26
:1030F00060E872E08DE793E00E94E906C201F4DA2D
:1031000083E892E09FD9C2010197879708F0C3C076
:1031100080910F039091100390930E0380930D0301
:1031200028E7821691040CF03EC0309210032092E2
:103130000F036AE772E0CE0101960E94D50602E015
:1031400010E020E030E0AE014F5F5F4F66E970E0D5
:1031500084E690E02BD9CE0101960E94D006EE24A1
:10316000EA94FE2C08E210E028E730E040E050E06E
:1031700060E070E080E394E00E948F0B85E892E0CD
:1031800061D96AE872E0CE0101960E94D50602E09C
:1031900010E020E038EFAE014F5F5F4F66E970E06E
:1031A0008CE390E044C080EF881691040CF044C09A
:1031B00082E090E09093100380930F036AE872E03E
:1031C000CE0101960E94D50602E010E020E030E03A
:1031D000AE014F5F5F4F66E970E08CE390E0E6D8A8
:1031E000CE0101960E94D006EE24EA94FE2C08E25D
:1031F00010E028E730E040E050E068E770E080E36E
:1032000094E00E948F0B8AE792E01CD96AE772E093
:10321000CE0101960E94D50602E010E020EE37E0D4
:10322000AE014F5F5F4F66E970E084E690E0BED884
:10323000CE0101960E94D00680910D0390910E035D
:1032400020910F03309110038217930721F101970A
:1032500071F4E12CF12C08E210E028E730E040E0C6
:1032600050E060E070E080E394E00E948F0B80917A
:103270000D0390910E03029771F4E12CF12C08E2FA
:1032800010E028E730E040E050E068E770E080E3DD
:1032900094E00E948F0BE1EF4E1A5108FBE34F16AA
:1032A000510408F0B2C0C4014F97833B910508F068
:1032B000ACC0E12C88EFF82E0FE010E094014EE056
:1032C00051E06EE170E080E394E00E94C10AE12CDD
:1032D000F12C21ED30E0281939094EE051E0B4011C
:1032E00080E394E00E94C10A20912E0430912F04C3
:1032F0004EE051E062ED70E080E394E00E94C10A8C
:10330000EE24EA94FE2C01E110E025EB30E04DE0E4
:1033100051E06DE170E080E394E00E948F0B1A822F
:1033200019821C821B821E821D826091280470916A
:1033300029046115710541F040912C0450912D0430
:10334000CE0101960E94900602E010E020E030E0FD
:10335000AE014F5F5F4F6AEF70E089E690E026D8DC
:10336000CE0101960E94D006B401CE0101960E94C2
:103370009E112FEF3FEFAE014F5F5F4F6AEF70E09E
:1033800089E690E013D8CE0101960E94D006B401E0
:10339000CE0101960E949E118091280490912904EB
:1033A0000097B9F069817A816115710589F04091C2
:1033B0002A0450912B042D813E814217530740F07F
:1033C000D6D38D819E8190932D0480932C0417C0B9
:1033D0005CD289819A8190932904809328048B81FF
:1033E0009C8190932B0480932A048D819E819093DD
:1033F0002D0480932C041A8219821C821B821E8247
:103400001D82CE0101960E94D0060E94060513CEB1
:1034100086E992E017D8FFCFEDE7F3E0138212823E
:1034200088EE93E0A0E0B0E084839583A683B78321
:103430002AE032E03183208325EC30E03587248791
:1034400024EC30E03787268720EC30E0318B208B6E
:1034500021EC30E0338B228B22EC30E0358B248B57
:1034600026EC30E0378B268B118E128E138E148E45
:10347000EAE1F4E020E520831182ECE1F4E013823C
:10348000128284839583A683B7838CE192E0918333
:103490008083EBE6F4E088E080838FEF8383828390
:1034A0008183A0E3B4E013961C921E92129740EF22
:1034B00050E015965C934E93149720E431E01796F4
:1034C0003C932E93169719965C934E9318971B96E0
:1034D0003C932E931A9755961C9255971D961C92C5
:1034E0001E921C971F961C921E921E9791E0549656
:1034F0009C9354972FEF3FEF53963C932E93529704
:1035000051963C932E93509756969C935697579668
:103510001C92579759961C921E925897D5961C92BA
:10352000D597D6961C92D697D8961C921E92D7976E
:10353000DA961C921E92D9979AE090969C93909757
:1035400099E091969C93919792968C93929723E70A
:1035500034E05B963C932E935A9793968C93939773
:1035600094968C93949795968C9395975C961D92D0
:103570001D921D921C925F979B961C921E929A9789
:10358000D2961C92D29797961C921E929697D0969E
:103590001C92D09799961C921E929897D1961C9245
:1035A000D197E7E6F2E0E491F0E0EE0FFF1FEC5B6D
:1035B000FD4F859194919D969C938E939C97E7E007
:1035C000F2E0E491D496EC93D497E8E6F2E0E4914B
:1035D000F0E0EE0FFF1FEC5BFD4F859194919F96FD
:1035E0009C938E939E97E8E0F2E0E491D396EC935F
:1035F000D3978EE292E08D939C938EE190E090932E
:103600002F0480932E0460E070E088E294E00C9434
:103610009E11BB274A3031F4992322F4BDE29095E4
:1036200081959F4F01C0BB27FB015527AA27880F13
:10363000991FAA1FA41710F0A41B83955051B9F726
:10364000A05DAA3308F0A95DA193009779F7B111A5
:10365000B1931192CB0100C0DC01FC01672F719185
:103660007723E1F7329704C07C916D937083629168
:10367000AE17BF07C8F30895052E97FB16F4009404
:103680000FD057FD05D024D007FC02D046F408C067
:1036900050954095309521953F4F4F4F5F4F08957E
:1036A00090958095709561957F4F8F4F9F4F0895AE
:1036B00031D0A59F900DB49F900DA49F800D911DBA
:1036C00011240895B7FFF4CFF3DF821B930B089505
:1036D000A1E21A2EAA1BBB1BFD010DC0AA1FBB1F16
:1036E000EE1FFF1FA217B307E407F50720F0A21B88
:1036F000B30BE40BF50B661F771F881F991F1A94F5
:1037000069F760957095809590959B01AC01BD011E
:10371000CF010895A29FB001B39FC001A39F700D78
:10372000811D1124911DB29F700D811D1124911DC9
:103730000895EE0FFF1F881F8BBF0790F691E02DB5
:103740001994E8DF332312F48A1B9B0B01C0E2DFDC
:10375000B7FF0895821B930B08950F931F93CF9388
:10376000DF938230910510F482E090E0E0917604DE
:10377000F091770420E030E0A0E0B0E0309719F15C
:10378000408151810281138148175907C8F084177D
:10379000950769F4109731F012960C9312971396CF
:1037A0001C9327C0009376041093770422C0211540
:1037B000310519F04217530718F49A01BD01EF01C2
:1037C000DF01F801DBCF21153105F9F0281B390B9A
:1037D0002430310580F48A819B816115710521F0C7
:1037E000FB019383828304C09093770480937604D3
:1037F000FE01329644C0FE01E20FF31F81939193C4
:1038000022503109398328833AC0209174043091C1
:103810007504232B41F4209102023091030230936E
:103820007504209374042091000230910102211547
:10383000310541F42DB73EB7409104025091050285
:10384000241B350BE0917404F0917504E217F30723
:10385000A0F42E1B3F0B2817390778F0AC014E5F00
:103860005F4F2417350748F04E0F5F1F50937504C4
:10387000409374048193919302C0E0E0F0E0CF01A3
:10388000DF91CF911F910F910895CF93DF93009710
:1038900009F481C0FC01329713821282A091760450
:1038A000B0917704109781F420813181820F931FAA
:1038B00020917404309175042817390751F5F0935D
:1038C0007504E093740467C0ED0120E030E0CE178A
:1038D000DF0740F44A815B819E0141155105F1F0FB
:1038E000EA01F5CFD383C28340815181840F951FB4
:1038F000C817D90759F488819981840F951F0296BA
:10390000918380838A819B819383828321153105F2
:1039100029F4F0937704E09376043DC0E901FB833A
:10392000EA8349915991C40FD51FEC17FD0761F443
:1039300080819181840F951F0296E9019983888384
:10394000828193819B838A83E0E0F0E012968D91DF
:103950009C911397009719F0FD01DC01F7CF8D9131
:103960009C9111979D012E5F3F4F820F931F2091D5
:103970007404309175042817390769F4309729F4D5
:10398000109277041092760402C013821282B093D0
:103990007504A0937404DF91CF9108956F927F9284
:1039A0008F929F92AF92BF92CF92DF92EF92FF924F
:1039B0000F931F93CF93DF93009781F4CB01DF9197
:1039C000CF911F910F91FF90EF90DF90CF90BF901C
:1039D000AF909F908F907F906F90BFCEFC01E60FCD
:1039E000F71F9C0122503109E217F30708F4A5C024
:1039F000EC01D9010D911C91119706171707A8F03A
:103A00000530110508F497C0C80104978617970779
:103A100008F491C002501109061B170B0193119372
:103A20006D937C93CF0131DF86C05B01A01AB10A90
:103A30004C01800E911EA0917604B0917704612C08
:103A4000712CE12CF12C109709F446C08D919C91BA
:103A50001197A815B905B1F56C0142E0C40ED11C4F
:103A6000CA14DB0478F14C018A189B08640142E017
:103A7000C40ED11C1296BC9012971396AC91B5E06F
:103A8000CB16D10440F0B282A38391828082D90107
:103A90006D937C9309C00E5F1F4F800F911FF9013A
:103AA00091838083EB2DFA2FE114F10431F0D701DB
:103AB0001396FC93EE9312973EC0F0937704E09335
:103AC000760439C06816790608F43C017D01129627
:103AD0000D90BC91A02DB7CF809174049091750486
:103AE00088169906E1F466167706C8F480910002FC
:103AF00090910102009741F48DB79EB74091040266
:103B000050910502841B950BE817F907B0F4F09368
:103B10007504E0937404F901718360830CC0CB01D8
:103B20001CDE7C01009749F0A801BE0117D0CE0130
:103B3000ACDEC70104C0CE0102C080E090E0DF919E
:103B4000CF911F910F91FF90EF90DF90CF90BF909A
:103B5000AF909F908F907F906F900895FB01DC0154
:103B600002C001900D9241505040D8F70895FB01DA
:103B7000DC0101900D920020E1F7089513E0C3ED00
:103B8000D3E000E005C0802FFE01D3DD2196011DAA
:0E3B9000C43DD10780E00807B1F7F894FFCFDD
:103B9E00000078048000000000009904070431043E
:103BAE00E504620440045404000000003E0E120EB0
:103BBE000F0E4A056E055A054B0500000000EC0E6F
:103BCE0007040F0E06046C0EDC10BB0E2010650BE6
:103BDE00520B5E0DD01044067605230BF40AC10A73
:103BEE005B0CEE0B8F0B7A0893050D0A00546F7564
:103BFE00636873637265656E207374617274656455
:103C0E000054656D700047617300474153002800F2
:103C1E002C2000290054454D500054656D7065727E
:103C2E00617475726500436F756C646E27742073D2
:103C3E007461727420746F75636873637265656EF8
:0C3C4E0020636F6E74726F6C6C65720006
:00000001FF
